S00D0000534C4156452E737265639C
S11300000C942A000C943F000C943F000C943F0085
S11300100C943F000C943F000C943F000C943F0060
S11300200C943F000C943F000C943F000C943F0050
S11300300C943F000C943F000C943F000C943F0040
S11300400C943F000C943F000C943F000C943F0030
S11300500C943F0011241FBECFE5D8E0DEBFCDBF16
S113006010E0A0E6B0E0ECEEF5E002C005900D92E1
S1130070A23AB107D9F70E9441000C94F4020C94FF
S113008000000E94AA010E94B5010E94C0010E94C2
S113009096000E9490000E94F3000E94EC020E94CD
S11300A0E10280E690E00E949B010E94E802813315
S11300B059F40E944F018BE690E00E949B010E943C
S11300C0B0010E949D00F1CF823359F40E944F0188
S11300D082E790E00E949B010E94BB010E949D0068
S11300E0E4CF833359F40E944F018AE790E00E94E1
S11300F09B010E94C6010E949D00D7CF843359F40E
S11301000E944F0181E890E00E949B010E949800A8
S11301100E949D00CACF8BE890E00E949B01C5CF4E
S1130120D39A0895DB9A0895DB980895D29A089596
S11301309BB384E089278BBB08950E9492002FEF24
S113014089E698E1215080409040E1F700C000002A
S11301500E9494000895CF93C82F40E061E081E0AD
S11301600E943C0240E062E081E00E943C0240E0E8
S113017063E081E00E943C028BB39C2F907F8F70E0
S1130180892B8BBB41E063E081E00E943C028FE954
S11301909FE00197F1F700C0000040E063E081E0D8
S11301A00E943C022BB330E1C39FC0011124922F63
S11301B09F70892B8BBB41E063E081E00E943C028D
S11301C08FE99FE00197F1F700C0000040E063E091
S11301D081E00E943C028FE19EE40197F1F700C0A8
S11301E00000CF91089541E061E081E00E94CB01DD
S11301F041E062E081E00E94CB0141E063E081E004
S11302000E94CB0141E064E080E00E94CB0141E028
S113021065E080E00E94CB0141E066E080E00E945E
S1130220CB0141E067E080E00E94CB0183E30E94C0
S1130230AB0082E30E94AB0088E20E94AB0082E044
S11302400E94AB008CE00E94AB0081E00E94AB00F6
S113025086E00E94AB0040E061E081E00E943C0245
S113026040E062E081E00E943C0240E063E081E023
S11302700E943C0240E064E080E00E943C0240E0D6
S113028065E080E00E943C0240E066E080E00E947D
S11302903C0240E067E080E00E943C02089581E077
S11302A00E94AB000895CF93C82F41E061E081E044
S11302B00E943C0240E062E081E00E943C0240E097
S11302C063E081E00E943C028BB39C2F907F8F708F
S11302D0892B8BBB41E063E081E00E943C028FE903
S11302E09FE00197F1F700C0000040E063E081E087
S11302F00E943C022BB330E1C39FC0011124922F12
S11303009F70892B8BBB41E063E081E00E943C023B
S11303108FE99FE00197F1F700C0000040E063E03F
S113032081E00E943C028FE19EE40197F1F700C056
S11303300000CF910895CF93DF93EC018881882347
S113034031F021960E94530189918111FBCFDF91F5
S1130350CF91089541E062E082E00E94CB010895CC
S113036062E082E00E94AD02089541E067E082E02D
S11303700E94CB01089567E082E00E94AD020895D7
S113038041E063E083E00E94CB01089563E083E0F1
S11303900E94AD020895442319F04130C9F1089533
S11303A0813091F028F08230D9F0833029F108951A
S11303B02AB381E090E002C0880F991F6A95E2F7A2
S11303C0809582238ABB089527B381E090E002C020
S11303D0880F991F6A95E2F78095822387BB089559
S11303E024B381E090E002C0880F991F6A95E2F778
S11303F08095822384BB089521B381E090E002C0FC
S1130400880F991F6A95E2F78095822381BB08952E
S1130410813089F028F08230C9F0833011F10895D9
S11304202AB381E090E002C0880F991F6A95E2F731
S1130430822B8ABB089527B381E090E002C0880F25
S1130440991F6A95E2F7822B87BB089524B381E054
S113045090E002C0880F991F6A95E2F7822B84BB53
S1130460089521B381E090E002C0880F991F6A9536
S1130470E2F7822B81BB0895442319F04130C9F17E
S11304800895813091F028F08230D9F0833029F139
S113049008952BB381E090E002C0880F991F6A95FC
S11304A0E2F7809582238BBB089528B381E090E026
S11304B002C0880F991F6A95E2F78095822388BB52
S11304C0089525B381E090E002C0880F991F6A95D2
S11304D0E2F78095822385BB089522B381E090E002
S11304E002C0880F991F6A95E2F78095822382BB28
S11304F00895813089F028F08230C9F0833011F1F9
S113050008952BB381E090E002C0880F991F6A958B
S1130510E2F7822B8BBB089528B381E090E002C000
S1130520880F991F6A95E2F7822B88BB089525B33B
S113053081E090E002C0880F991F6A95E2F7822B50
S113054085BB089522B381E090E002C0880F991F13
S11305506A95E2F7822B82BB0895813089F028F0F6
S11305608230C9F0833011F108952BB381E090E01B
S113057002C0880F991F6A95E2F782278BBB089502
S113058028B381E090E002C0880F991F6A95E2F7D2
S1130590822788BB089525B381E090E002C0880FCC
S11305A0991F6A95E2F7822785BB089522B381E0FB
S11305B090E002C0880F991F6A95E2F7822782BBF8
S11305C00895BD98BE9ABF98BC9883E48DB90895E8
S11305D0779BFECF8FB1089588E18AB986E880BD04
S10F05E087E689B910BC0895F894FFCF99
S11305EC536D61727420486F6D6500524F4F4D20EE
S11305FC3100524F4F4D20322000524F4F4D20337B
S113060C004F50454E20444F4F52004461746120BA
S113061C52656365697665642069732057726F6EE1
S105062C670061
S9030000FC
